{
  "_format": "hh-sol-artifact-1",
  "contractName": "RewardNFT",
  "sourceName": "contracts/contracts/RewardNFT.sol",
  "abi": [
    {
      "inputs": [],
      "stateMutability": "nonpayable",
      "type": "constructor"
    },
    {
      "inputs": [
        {
          "internalType": "address",
          "name": "sender",
          "type": "address"
        },
        {
          "internalType": "uint256",
          "name": "tokenId",
          "type": "uint256"
        },
        {
          "internalType": "address",
          "name": "owner",
          "type": "address"
        }
      ],
      "name": "ERC721IncorrectOwner",
      "type": "error"
    },
    {
      "inputs": [
        {
          "internalType": "address",
          "name": "operator",
          "type": "address"
        },
        {
          "internalType": "uint256",
          "name": "tokenId",
          "type": "uint256"
        }
      ],
      "name": "ERC721InsufficientApproval",
      "type": "error"
    },
    {
      "inputs": [
        {
          "internalType": "address",
          "name": "approver",
          "type": "address"
        }
      ],
      "name": "ERC721InvalidApprover",
      "type": "error"
    },
    {
      "inputs": [
        {
          "internalType": "address",
          "name": "operator",
          "type": "address"
        }
      ],
      "name": "ERC721InvalidOperator",
      "type": "error"
    },
    {
      "inputs": [
        {
          "internalType": "address",
          "name": "owner",
          "type": "address"
        }
      ],
      "name": "ERC721InvalidOwner",
      "type": "error"
    },
    {
      "inputs": [
        {
          "internalType": "address",
          "name": "receiver",
          "type": "address"
        }
      ],
      "name": "ERC721InvalidReceiver",
      "type": "error"
    },
    {
      "inputs": [
        {
          "internalType": "address",
          "name": "sender",
          "type": "address"
        }
      ],
      "name": "ERC721InvalidSender",
      "type": "error"
    },
    {
      "inputs": [
        {
          "internalType": "uint256",
          "name": "tokenId",
          "type": "uint256"
        }
      ],
      "name": "ERC721NonexistentToken",
      "type": "error"
    },
    {
      "inputs": [
        {
          "internalType": "address",
          "name": "owner",
          "type": "address"
        }
      ],
      "name": "OwnableInvalidOwner",
      "type": "error"
    },
    {
      "inputs": [
        {
          "internalType": "address",
          "name": "account",
          "type": "address"
        }
      ],
      "name": "OwnableUnauthorizedAccount",
      "type": "error"
    },
    {
      "anonymous": false,
      "inputs": [
        {
          "indexed": true,
          "internalType": "address",
          "name": "owner",
          "type": "address"
        },
        {
          "indexed": true,
          "internalType": "address",
          "name": "approved",
          "type": "address"
        },
        {
          "indexed": true,
          "internalType": "uint256",
          "name": "tokenId",
          "type": "uint256"
        }
      ],
      "name": "Approval",
      "type": "event"
    },
    {
      "anonymous": false,
      "inputs": [
        {
          "indexed": true,
          "internalType": "address",
          "name": "owner",
          "type": "address"
        },
        {
          "indexed": true,
          "internalType": "address",
          "name": "operator",
          "type": "address"
        },
        {
          "indexed": false,
          "internalType": "bool",
          "name": "approved",
          "type": "bool"
        }
      ],
      "name": "ApprovalForAll",
      "type": "event"
    },
    {
      "anonymous": false,
      "inputs": [
        {
          "indexed": true,
          "internalType": "address",
          "name": "previousOwner",
          "type": "address"
        },
        {
          "indexed": true,
          "internalType": "address",
          "name": "newOwner",
          "type": "address"
        }
      ],
      "name": "OwnershipTransferred",
      "type": "event"
    },
    {
      "anonymous": false,
      "inputs": [
        {
          "indexed": true,
          "internalType": "address",
          "name": "from",
          "type": "address"
        },
        {
          "indexed": true,
          "internalType": "address",
          "name": "to",
          "type": "address"
        },
        {
          "indexed": true,
          "internalType": "uint256",
          "name": "tokenId",
          "type": "uint256"
        }
      ],
      "name": "Transfer",
      "type": "event"
    },
    {
      "inputs": [
        {
          "internalType": "address",
          "name": "to",
          "type": "address"
        },
        {
          "internalType": "uint256",
          "name": "tokenId",
          "type": "uint256"
        }
      ],
      "name": "approve",
      "outputs": [],
      "stateMutability": "nonpayable",
      "type": "function"
    },
    {
      "inputs": [
        {
          "internalType": "address",
          "name": "owner",
          "type": "address"
        }
      ],
      "name": "balanceOf",
      "outputs": [
        {
          "internalType": "uint256",
          "name": "",
          "type": "uint256"
        }
      ],
      "stateMutability": "view",
      "type": "function"
    },
    {
      "inputs": [
        {
          "internalType": "uint256",
          "name": "tokenId",
          "type": "uint256"
        }
      ],
      "name": "getApproved",
      "outputs": [
        {
          "internalType": "address",
          "name": "",
          "type": "address"
        }
      ],
      "stateMutability": "view",
      "type": "function"
    },
    {
      "inputs": [
        {
          "internalType": "address",
          "name": "user",
          "type": "address"
        }
      ],
      "name": "getUserBoost",
      "outputs": [
        {
          "internalType": "uint256",
          "name": "",
          "type": "uint256"
        }
      ],
      "stateMutability": "view",
      "type": "function"
    },
    {
      "inputs": [
        {
          "internalType": "address",
          "name": "owner",
          "type": "address"
        },
        {
          "internalType": "address",
          "name": "operator",
          "type": "address"
        }
      ],
      "name": "isApprovedForAll",
      "outputs": [
        {
          "internalType": "bool",
          "name": "",
          "type": "bool"
        }
      ],
      "stateMutability": "view",
      "type": "function"
    },
    {
      "inputs": [
        {
          "internalType": "address",
          "name": "to",
          "type": "address"
        },
        {
          "internalType": "enum RewardNFT.NFTType",
          "name": "nftType",
          "type": "uint8"
        }
      ],
      "name": "mint",
      "outputs": [
        {
          "internalType": "uint256",
          "name": "",
          "type": "uint256"
        }
      ],
      "stateMutability": "nonpayable",
      "type": "function"
    },
    {
      "inputs": [
        {
          "internalType": "address",
          "name": "to",
          "type": "address"
        }
      ],
      "name": "mintAccess",
      "outputs": [
        {
          "internalType": "uint256",
          "name": "",
          "type": "uint256"
        }
      ],
      "stateMutability": "nonpayable",
      "type": "function"
    },
    {
      "inputs": [
        {
          "internalType": "address",
          "name": "to",
          "type": "address"
        }
      ],
      "name": "mintGenesis",
      "outputs": [
        {
          "internalType": "uint256",
          "name": "",
          "type": "uint256"
        }
      ],
      "stateMutability": "nonpayable",
      "type": "function"
    },
    {
      "inputs": [
        {
          "internalType": "address",
          "name": "to",
          "type": "address"
        }
      ],
      "name": "mintMultiplier",
      "outputs": [
        {
          "internalType": "uint256",
          "name": "",
          "type": "uint256"
        }
      ],
      "stateMutability": "nonpayable",
      "type": "function"
    },
    {
      "inputs": [],
      "name": "name",
      "outputs": [
        {
          "internalType": "string",
          "name": "",
          "type": "string"
        }
      ],
      "stateMutability": "view",
      "type": "function"
    },
    {
      "inputs": [
        {
          "internalType": "uint256",
          "name": "",
          "type": "uint256"
        }
      ],
      "name": "nftBoosts",
      "outputs": [
        {
          "internalType": "uint256",
          "name": "",
          "type": "uint256"
        }
      ],
      "stateMutability": "view",
      "type": "function"
    },
    {
      "inputs": [
        {
          "internalType": "uint256",
          "name": "",
          "type": "uint256"
        }
      ],
      "name": "nftTypes",
      "outputs": [
        {
          "internalType": "enum RewardNFT.NFTType",
          "name": "",
          "type": "uint8"
        }
      ],
      "stateMutability": "view",
      "type": "function"
    },
    {
      "inputs": [],
      "name": "owner",
      "outputs": [
        {
          "internalType": "address",
          "name": "",
          "type": "address"
        }
      ],
      "stateMutability": "view",
      "type": "function"
    },
    {
      "inputs": [
        {
          "internalType": "uint256",
          "name": "tokenId",
          "type": "uint256"
        }
      ],
      "name": "ownerOf",
      "outputs": [
        {
          "internalType": "address",
          "name": "",
          "type": "address"
        }
      ],
      "stateMutability": "view",
      "type": "function"
    },
    {
      "inputs": [],
      "name": "renounceOwnership",
      "outputs": [],
      "stateMutability": "nonpayable",
      "type": "function"
    },
    {
      "inputs": [
        {
          "internalType": "address",
          "name": "from",
          "type": "address"
        },
        {
          "internalType": "address",
          "name": "to",
          "type": "address"
        },
        {
          "internalType": "uint256",
          "name": "tokenId",
          "type": "uint256"
        }
      ],
      "name": "safeTransferFrom",
      "outputs": [],
      "stateMutability": "nonpayable",
      "type": "function"
    },
    {
      "inputs": [
        {
          "internalType": "address",
          "name": "from",
          "type": "address"
        },
        {
          "internalType": "address",
          "name": "to",
          "type": "address"
        },
        {
          "internalType": "uint256",
          "name": "tokenId",
          "type": "uint256"
        },
        {
          "internalType": "bytes",
          "name": "data",
          "type": "bytes"
        }
      ],
      "name": "safeTransferFrom",
      "outputs": [],
      "stateMutability": "nonpayable",
      "type": "function"
    },
    {
      "inputs": [
        {
          "internalType": "address",
          "name": "operator",
          "type": "address"
        },
        {
          "internalType": "bool",
          "name": "approved",
          "type": "bool"
        }
      ],
      "name": "setApprovalForAll",
      "outputs": [],
      "stateMutability": "nonpayable",
      "type": "function"
    },
    {
      "inputs": [
        {
          "internalType": "bytes4",
          "name": "interfaceId",
          "type": "bytes4"
        }
      ],
      "name": "supportsInterface",
      "outputs": [
        {
          "internalType": "bool",
          "name": "",
          "type": "bool"
        }
      ],
      "stateMutability": "view",
      "type": "function"
    },
    {
      "inputs": [],
      "name": "symbol",
      "outputs": [
        {
          "internalType": "string",
          "name": "",
          "type": "string"
        }
      ],
      "stateMutability": "view",
      "type": "function"
    },
    {
      "inputs": [
        {
          "internalType": "address",
          "name": "owner",
          "type": "address"
        },
        {
          "internalType": "uint256",
          "name": "index",
          "type": "uint256"
        }
      ],
      "name": "tokenOfOwnerByIndex",
      "outputs": [
        {
          "internalType": "uint256",
          "name": "",
          "type": "uint256"
        }
      ],
      "stateMutability": "view",
      "type": "function"
    },
    {
      "inputs": [
        {
          "internalType": "uint256",
          "name": "tokenId",
          "type": "uint256"
        }
      ],
      "name": "tokenURI",
      "outputs": [
        {
          "internalType": "string",
          "name": "",
          "type": "string"
        }
      ],
      "stateMutability": "view",
      "type": "function"
    },
    {
      "inputs": [],
      "name": "totalSupply",
      "outputs": [
        {
          "internalType": "uint256",
          "name": "",
          "type": "uint256"
        }
      ],
      "stateMutability": "view",
      "type": "function"
    },
    {
      "inputs": [
        {
          "internalType": "address",
          "name": "from",
          "type": "address"
        },
        {
          "internalType": "address",
          "name": "to",
          "type": "address"
        },
        {
          "internalType": "uint256",
          "name": "tokenId",
          "type": "uint256"
        }
      ],
      "name": "transferFrom",
      "outputs": [],
      "stateMutability": "nonpayable",
      "type": "function"
    },
    {
      "inputs": [
        {
          "internalType": "address",
          "name": "newOwner",
          "type": "address"
        }
      ],
      "name": "transferOwnership",
      "outputs": [],
      "stateMutability": "nonpayable",
      "type": "function"
    }
  ],
  "bytecode": "0x60806040523480156200001157600080fd5b50336040518060400160405280600981526020017f5265776172644e465400000000000000000000000000000000000000000000008152506040518060400160405280600581526020017f52574e465400000000000000000000000000000000000000000000000000000081525081600090816200009091906200047a565b508060019081620000a291906200047a565b505050600073ffffffffffffffffffffffffffffffffffffffff168173ffffffffffffffffffffffffffffffffffffffff16036200011a5760006040517f1e4fbdf7000000000000000000000000000000000000000000000000000000008152600401620001119190620005a6565b60405180910390fd5b6200012b816200013a60201b60201c565b506001600781905550620005c3565b6000600660009054906101000a900473ffffffffffffffffffffffffffffffffffffffff16905081600660006101000a81548173ffffffffffffffffffffffffffffffffffffffff021916908373ffffffffffffffffffffffffffffffffffffffff1602179055508173ffffffffffffffffffffffffffffffffffffffff168173ffffffffffffffffffffffffffffffffffffffff167f8be0079c531659141344cd1fd0a4f28419497f9722a3daafe3b4186f6b6457e060405160405180910390a35050565b600081519050919050565b7f4e487b7100000000000000000000000000000000000000000000000000000000600052604160045260246000fd5b7f4e487b7100000000000000000000000000000000000000000000000000000000600052602260045260246000fd5b600060028204905060018216806200028257607f821691505b6020821081036200029857620002976200023a565b5b50919050565b60008190508160005260206000209050919050565b60006020601f8301049050919050565b600082821b905092915050565b600060088302620003027fffffffffffffffffffffffffffffffffffffffffffffffffffffffffffffffff82620002c3565b6200030e8683620002c3565b95508019841693508086168417925050509392505050565b6000819050919050565b6000819050919050565b60006200035b620003556200034f8462000326565b62000330565b62000326565b9050919050565b6000819050919050565b62000377836200033a565b6200038f620003868262000362565b848454620002d0565b825550505050565b600090565b620003a662000397565b620003b38184846200036c565b505050565b5b81811015620003db57620003cf6000826200039c565b600181019050620003b9565b5050565b601f8211156200042a57620003f4816200029e565b620003ff84620002b3565b810160208510156200040f578190505b620004276200041e85620002b3565b830182620003b8565b50505b505050565b600082821c905092915050565b60006200044f600019846008026200042f565b1980831691505092915050565b60006200046a83836200043c565b9150826002028217905092915050565b620004858262000200565b67ffffffffffffffff811115620004a157620004a06200020b565b5b620004ad825462000269565b620004ba828285620003df565b600060209050601f831160018114620004f25760008415620004dd578287015190505b620004e985826200045c565b86555062000559565b601f19841662000502866200029e565b60005b828110156200052c5784890151825560018201915060208501945060208101905062000505565b868310156200054c578489015162000548601f8916826200043c565b8355505b6001600288020188555050505b505050505050565b600073ffffffffffffffffffffffffffffffffffffffff82169050919050565b60006200058e8262000561565b9050919050565b620005a08162000581565b82525050565b6000602082019050620005bd600083018462000595565b92915050565b61284d80620005d36000396000f3fe608060405234801561001057600080fd5b50600436106101735760003560e01c806379b2ab23116100de578063a22cb46511610097578063d068af3311610071578063d068af3314610496578063e985e9c5146104c6578063f2fde38b146104f6578063fa29ac521461051257610173565b8063a22cb4651461042e578063b88d4fde1461044a578063c87b56dd1461046657610173565b806379b2ab23146103325780638da5cb5b1461036257806394020392146103805780639581372b146103b057806395d89b41146103e0578063971f5f6e146103fe57610173565b80632f745c59116101305780632f745c591461024c57806342842e0e1461027c5780636352211e14610298578063691562a0146102c857806370a08231146102f8578063715018a61461032857610173565b806301ffc9a71461017857806306fdde03146101a8578063081812fc146101c6578063095ea7b3146101f657806318160ddd1461021257806323b872dd14610230575b600080fd5b610192600480360381019061018d9190611de9565b610542565b60405161019f9190611e31565b60405180910390f35b6101b0610624565b6040516101bd9190611edc565b60405180910390f35b6101e060048036038101906101db9190611f34565b6106b6565b6040516101ed9190611fa2565b60405180910390f35b610210600480360381019061020b9190611fe9565b6106d2565b005b61021a6106e8565b6040516102279190612038565b60405180910390f35b61024a60048036038101906102459190612053565b6106fe565b005b61026660048036038101906102619190611fe9565b610800565b6040516102739190612038565b60405180910390f35b61029660048036038101906102919190612053565b61090e565b005b6102b260048036038101906102ad9190611f34565b61092e565b6040516102bf9190611fa2565b60405180910390f35b6102e260048036038101906102dd91906120cb565b610940565b6040516102ef9190612038565b60405180910390f35b610312600480360381019061030d919061210b565b610a8a565b60405161031f9190612038565b60405180910390f35b610330610b44565b005b61034c60048036038101906103479190611f34565b610b58565b60405161035991906121af565b60405180910390f35b61036a610b78565b6040516103779190611fa2565b60405180910390f35b61039a6004803603810190610395919061210b565b610ba2565b6040516103a79190612038565b60405180910390f35b6103ca60048036038101906103c5919061210b565b610bb6565b6040516103d79190612038565b60405180910390f35b6103e8610c23565b6040516103f59190611edc565b60405180910390f35b61041860048036038101906104139190611f34565b610cb5565b6040516104259190612038565b60405180910390f35b610448600480360381019061044391906121f6565b610ccd565b005b610464600480360381019061045f919061236b565b610ce3565b005b610480600480360381019061047b9190611f34565b610d08565b60405161048d9190611edc565b60405180910390f35b6104b060048036038101906104ab919061210b565b610d71565b6040516104bd9190612038565b60405180910390f35b6104e060048036038101906104db91906123ee565b610d85565b6040516104ed9190611e31565b60405180910390f35b610510600480360381019061050b919061210b565b610e19565b005b61052c6004803603810190610527919061210b565b610e9f565b6040516105399190612038565b60405180910390f35b60007f80ac58cd000000000000000000000000000000000000000000000000000000007bffffffffffffffffffffffffffffffffffffffffffffffffffffffff1916827bffffffffffffffffffffffffffffffffffffffffffffffffffffffff1916148061060d57507f5b5e139f000000000000000000000000000000000000000000000000000000007bffffffffffffffffffffffffffffffffffffffffffffffffffffffff1916827bffffffffffffffffffffffffffffffffffffffffffffffffffffffff1916145b8061061d575061061c82610eb3565b5b9050919050565b6060600080546106339061245d565b80601f016020809104026020016040519081016040528092919081815260200182805461065f9061245d565b80156106ac5780601f10610681576101008083540402835291602001916106ac565b820191906000526020600020905b81548152906001019060200180831161068f57829003601f168201915b5050505050905090565b60006106c182610f1d565b506106cb82610fa5565b9050919050565b6106e482826106df610fe2565b610fea565b5050565b600060016007546106f991906124bd565b905090565b600073ffffffffffffffffffffffffffffffffffffffff168273ffffffffffffffffffffffffffffffffffffffff16036107705760006040517f64a0ae920000000000000000000000000000000000000000000000000000000081526004016107679190611fa2565b60405180910390fd5b6000610784838361077f610fe2565b610ffc565b90508373ffffffffffffffffffffffffffffffffffffffff168173ffffffffffffffffffffffffffffffffffffffff16146107fa578382826040517f64283d7b0000000000000000000000000000000000000000000000000000000081526004016107f1939291906124f1565b60405180910390fd5b50505050565b600061080b83610a8a565b821061084c576040517f08c379a000000000000000000000000000000000000000000000000000000000815260040161084390612574565b60405180910390fd5b600080600190505b6007548110156108cc578473ffffffffffffffffffffffffffffffffffffffff1661087e82611216565b73ffffffffffffffffffffffffffffffffffffffff16036108b9578382036108aa578092505050610908565b81806108b590612594565b9250505b80806108c490612594565b915050610854565b506040517f08c379a00000000000000000000000000000000000000000000000000000000081526004016108ff90612628565b60405180910390fd5b92915050565b61092983838360405180602001604052806000815250610ce3565b505050565b600061093982610f1d565b9050919050565b60008060075490506007600081548092919061095b90612594565b919050555061096a8482611253565b826009600083815260200190815260200160002060006101000a81548160ff021916908360028111156109a05761099f612138565b5b0217905550600060028111156109b9576109b8612138565b5b8360028111156109cc576109cb612138565b5b036109ef5760fa6008600083815260200190815260200160002081905550610a80565b60016002811115610a0357610a02612138565b5b836002811115610a1657610a15612138565b5b03610a395760786008600083815260200190815260200160002081905550610a7f565b600280811115610a4c57610a4b612138565b5b836002811115610a5f57610a5e612138565b5b03610a7e57600060086000838152602001908152602001600020819055505b5b5b8091505092915050565b60008073ffffffffffffffffffffffffffffffffffffffff168273ffffffffffffffffffffffffffffffffffffffff1603610afd5760006040517f89c62b64000000000000000000000000000000000000000000000000000000008152600401610af49190611fa2565b60405180910390fd5b600360008373ffffffffffffffffffffffffffffffffffffffff1673ffffffffffffffffffffffffffffffffffffffff168152602001908152602001600020549050919050565b610b4c611271565b610b5660006112f8565b565b60096020528060005260406000206000915054906101000a900460ff1681565b6000600660009054906101000a900473ffffffffffffffffffffffffffffffffffffffff16905090565b6000610baf826000610940565b9050919050565b600080600090506000610bc884610a8a565b905060005b81811015610c18576000610be18683610800565b9050600860008281526020019081526020016000205484610c029190612648565b9350508080610c1090612594565b915050610bcd565b508192505050919050565b606060018054610c329061245d565b80601f0160208091040260200160405190810160405280929190818152602001828054610c5e9061245d565b8015610cab5780601f10610c8057610100808354040283529160200191610cab565b820191906000526020600020905b815481529060010190602001808311610c8e57829003601f168201915b5050505050905090565b60086020528060005260406000206000915090505481565b610cdf610cd8610fe2565b83836113be565b5050565b610cee8484846106fe565b610d02610cf9610fe2565b8585858561152d565b50505050565b6060610d1382610f1d565b506000610d1e6116de565b90506000815111610d3e5760405180602001604052806000815250610d69565b80610d48846116f5565b604051602001610d599291906126b8565b6040516020818303038152906040525b915050919050565b6000610d7e826002610940565b9050919050565b6000600560008473ffffffffffffffffffffffffffffffffffffffff1673ffffffffffffffffffffffffffffffffffffffff16815260200190815260200160002060008373ffffffffffffffffffffffffffffffffffffffff1673ffffffffffffffffffffffffffffffffffffffff16815260200190815260200160002060009054906101000a900460ff16905092915050565b610e21611271565b600073ffffffffffffffffffffffffffffffffffffffff168173ffffffffffffffffffffffffffffffffffffffff1603610e935760006040517f1e4fbdf7000000000000000000000000000000000000000000000000000000008152600401610e8a9190611fa2565b60405180910390fd5b610e9c816112f8565b50565b6000610eac826001610940565b9050919050565b60007f01ffc9a7000000000000000000000000000000000000000000000000000000007bffffffffffffffffffffffffffffffffffffffffffffffffffffffff1916827bffffffffffffffffffffffffffffffffffffffffffffffffffffffff1916149050919050565b600080610f2983611216565b9050600073ffffffffffffffffffffffffffffffffffffffff168173ffffffffffffffffffffffffffffffffffffffff1603610f9c57826040517f7e273289000000000000000000000000000000000000000000000000000000008152600401610f939190612038565b60405180910390fd5b80915050919050565b60006004600083815260200190815260200160002060009054906101000a900473ffffffffffffffffffffffffffffffffffffffff169050919050565b600033905090565b610ff783838360016117c3565b505050565b60008061100884611216565b9050600073ffffffffffffffffffffffffffffffffffffffff168373ffffffffffffffffffffffffffffffffffffffff161461104a57611049818486611988565b5b600073ffffffffffffffffffffffffffffffffffffffff168173ffffffffffffffffffffffffffffffffffffffff16146110db5761108c6000856000806117c3565b6001600360008373ffffffffffffffffffffffffffffffffffffffff1673ffffffffffffffffffffffffffffffffffffffff168152602001908152602001600020600082825403925050819055505b600073ffffffffffffffffffffffffffffffffffffffff168573ffffffffffffffffffffffffffffffffffffffff161461115e576001600360008773ffffffffffffffffffffffffffffffffffffffff1673ffffffffffffffffffffffffffffffffffffffff168152602001908152602001600020600082825401925050819055505b846002600086815260200190815260200160002060006101000a81548173ffffffffffffffffffffffffffffffffffffffff021916908373ffffffffffffffffffffffffffffffffffffffff160217905550838573ffffffffffffffffffffffffffffffffffffffff168273ffffffffffffffffffffffffffffffffffffffff167fddf252ad1be2c89b69c2b068fc378daa952ba7f163c4a11628f55a4df523b3ef60405160405180910390a4809150509392505050565b60006002600083815260200190815260200160002060009054906101000a900473ffffffffffffffffffffffffffffffffffffffff169050919050565b61126d828260405180602001604052806000815250611a4c565b5050565b611279610fe2565b73ffffffffffffffffffffffffffffffffffffffff16611297610b78565b73ffffffffffffffffffffffffffffffffffffffff16146112f6576112ba610fe2565b6040517f118cdaa70000000000000000000000000000000000000000000000000000000081526004016112ed9190611fa2565b60405180910390fd5b565b6000600660009054906101000a900473ffffffffffffffffffffffffffffffffffffffff16905081600660006101000a81548173ffffffffffffffffffffffffffffffffffffffff021916908373ffffffffffffffffffffffffffffffffffffffff1602179055508173ffffffffffffffffffffffffffffffffffffffff168173ffffffffffffffffffffffffffffffffffffffff167f8be0079c531659141344cd1fd0a4f28419497f9722a3daafe3b4186f6b6457e060405160405180910390a35050565b600073ffffffffffffffffffffffffffffffffffffffff168273ffffffffffffffffffffffffffffffffffffffff160361142f57816040517f5b08ba180000000000000000000000000000000000000000000000000000000081526004016114269190611fa2565b60405180910390fd5b80600560008573ffffffffffffffffffffffffffffffffffffffff1673ffffffffffffffffffffffffffffffffffffffff16815260200190815260200160002060008473ffffffffffffffffffffffffffffffffffffffff1673ffffffffffffffffffffffffffffffffffffffff16815260200190815260200160002060006101000a81548160ff0219169083151502179055508173ffffffffffffffffffffffffffffffffffffffff168373ffffffffffffffffffffffffffffffffffffffff167f17307eab39ab6107e8899845ad3d59bd9653f200f220920489ca2b5937696c31836040516115209190611e31565b60405180910390a3505050565b60008373ffffffffffffffffffffffffffffffffffffffff163b11156116d7578273ffffffffffffffffffffffffffffffffffffffff1663150b7a02868685856040518563ffffffff1660e01b815260040161158c9493929190612731565b6020604051808303816000875af19250505080156115c857506040513d601f19601f820116820180604052508101906115c59190612792565b60015b61164c573d80600081146115f8576040519150601f19603f3d011682016040523d82523d6000602084013e6115fd565b606091505b50600081510361164457836040517f64a0ae9200000000000000000000000000000000000000000000000000000000815260040161163b9190611fa2565b60405180910390fd5b805160208201fd5b63150b7a0260e01b7bffffffffffffffffffffffffffffffffffffffffffffffffffffffff1916817bffffffffffffffffffffffffffffffffffffffffffffffffffffffff1916146116d557836040517f64a0ae920000000000000000000000000000000000000000000000000000000081526004016116cc9190611fa2565b60405180910390fd5b505b5050505050565b606060405180602001604052806000815250905090565b60606000600161170484611a70565b01905060008167ffffffffffffffff81111561172357611722612240565b5b6040519080825280601f01601f1916602001820160405280156117555781602001600182028036833780820191505090505b509050600082602083010190505b6001156117b8578080600190039150507f3031323334353637383961626364656600000000000000000000000000000000600a86061a8153600a85816117ac576117ab6127bf565b5b04945060008503611763575b819350505050919050565b80806117fc5750600073ffffffffffffffffffffffffffffffffffffffff168273ffffffffffffffffffffffffffffffffffffffff1614155b1561193057600061180c84610f1d565b9050600073ffffffffffffffffffffffffffffffffffffffff168373ffffffffffffffffffffffffffffffffffffffff161415801561187757508273ffffffffffffffffffffffffffffffffffffffff168173ffffffffffffffffffffffffffffffffffffffff1614155b801561188a57506118888184610d85565b155b156118cc57826040517fa9fbf51f0000000000000000000000000000000000000000000000000000000081526004016118c39190611fa2565b60405180910390fd5b811561192e57838573ffffffffffffffffffffffffffffffffffffffff168273ffffffffffffffffffffffffffffffffffffffff167f8c5be1e5ebec7d5bd14f71427d1e84f3dd0314c0f7b2291e5b200ac8c7c3b92560405160405180910390a45b505b836004600085815260200190815260200160002060006101000a81548173ffffffffffffffffffffffffffffffffffffffff021916908373ffffffffffffffffffffffffffffffffffffffff16021790555050505050565b611993838383611bc3565b611a4757600073ffffffffffffffffffffffffffffffffffffffff168373ffffffffffffffffffffffffffffffffffffffff1603611a0857806040517f7e2732890000000000000000000000000000000000000000000000000000000081526004016119ff9190612038565b60405180910390fd5b81816040517f177e802f000000000000000000000000000000000000000000000000000000008152600401611a3e9291906127ee565b60405180910390fd5b505050565b611a568383611c84565b611a6b611a61610fe2565b600085858561152d565b505050565b600080600090507a184f03e93ff9f4daa797ed6e38ed64bf6a1f0100000000000000008310611ace577a184f03e93ff9f4daa797ed6e38ed64bf6a1f0100000000000000008381611ac457611ac36127bf565b5b0492506040810190505b6d04ee2d6d415b85acef81000000008310611b0b576d04ee2d6d415b85acef81000000008381611b0157611b006127bf565b5b0492506020810190505b662386f26fc100008310611b3a57662386f26fc100008381611b3057611b2f6127bf565b5b0492506010810190505b6305f5e1008310611b63576305f5e1008381611b5957611b586127bf565b5b0492506008810190505b6127108310611b88576127108381611b7e57611b7d6127bf565b5b0492506004810190505b60648310611bab5760648381611ba157611ba06127bf565b5b0492506002810190505b600a8310611bba576001810190505b80915050919050565b60008073ffffffffffffffffffffffffffffffffffffffff168373ffffffffffffffffffffffffffffffffffffffff1614158015611c7b57508273ffffffffffffffffffffffffffffffffffffffff168473ffffffffffffffffffffffffffffffffffffffff161480611c3c5750611c3b8484610d85565b5b80611c7a57508273ffffffffffffffffffffffffffffffffffffffff16611c6283610fa5565b73ffffffffffffffffffffffffffffffffffffffff16145b5b90509392505050565b600073ffffffffffffffffffffffffffffffffffffffff168273ffffffffffffffffffffffffffffffffffffffff1603611cf65760006040517f64a0ae92000000000000000000000000000000000000000000000000000000008152600401611ced9190611fa2565b60405180910390fd5b6000611d0483836000610ffc565b9050600073ffffffffffffffffffffffffffffffffffffffff168173ffffffffffffffffffffffffffffffffffffffff1614611d785760006040517f73c6ac6e000000000000000000000000000000000000000000000000000000008152600401611d6f9190611fa2565b60405180910390fd5b505050565b6000604051905090565b600080fd5b600080fd5b60007fffffffff0000000000000000000000000000000000000000000000000000000082169050919050565b611dc681611d91565b8114611dd157600080fd5b50565b600081359050611de381611dbd565b92915050565b600060208284031215611dff57611dfe611d87565b5b6000611e0d84828501611dd4565b91505092915050565b60008115159050919050565b611e2b81611e16565b82525050565b6000602082019050611e466000830184611e22565b92915050565b600081519050919050565b600082825260208201905092915050565b60005b83811015611e86578082015181840152602081019050611e6b565b60008484015250505050565b6000601f19601f8301169050919050565b6000611eae82611e4c565b611eb88185611e57565b9350611ec8818560208601611e68565b611ed181611e92565b840191505092915050565b60006020820190508181036000830152611ef68184611ea3565b905092915050565b6000819050919050565b611f1181611efe565b8114611f1c57600080fd5b50565b600081359050611f2e81611f08565b92915050565b600060208284031215611f4a57611f49611d87565b5b6000611f5884828501611f1f565b91505092915050565b600073ffffffffffffffffffffffffffffffffffffffff82169050919050565b6000611f8c82611f61565b9050919050565b611f9c81611f81565b82525050565b6000602082019050611fb76000830184611f93565b92915050565b611fc681611f81565b8114611fd157600080fd5b50565b600081359050611fe381611fbd565b92915050565b6000806040838503121561200057611fff611d87565b5b600061200e85828601611fd4565b925050602061201f85828601611f1f565b9150509250929050565b61203281611efe565b82525050565b600060208201905061204d6000830184612029565b92915050565b60008060006060848603121561206c5761206b611d87565b5b600061207a86828701611fd4565b935050602061208b86828701611fd4565b925050604061209c86828701611f1f565b9150509250925092565b600381106120b357600080fd5b50565b6000813590506120c5816120a6565b92915050565b600080604083850312156120e2576120e1611d87565b5b60006120f085828601611fd4565b9250506020612101858286016120b6565b9150509250929050565b60006020828403121561212157612120611d87565b5b600061212f84828501611fd4565b91505092915050565b7f4e487b7100000000000000000000000000000000000000000000000000000000600052602160045260246000fd5b6003811061217857612177612138565b5b50565b600081905061218982612167565b919050565b60006121998261217b565b9050919050565b6121a98161218e565b82525050565b60006020820190506121c460008301846121a0565b92915050565b6121d381611e16565b81146121de57600080fd5b50565b6000813590506121f0816121ca565b92915050565b6000806040838503121561220d5761220c611d87565b5b600061221b85828601611fd4565b925050602061222c858286016121e1565b9150509250929050565b600080fd5b600080fd5b7f4e487b7100000000000000000000000000000000000000000000000000000000600052604160045260246000fd5b61227882611e92565b810181811067ffffffffffffffff8211171561229757612296612240565b5b80604052505050565b60006122aa611d7d565b90506122b6828261226f565b919050565b600067ffffffffffffffff8211156122d6576122d5612240565b5b6122df82611e92565b9050602081019050919050565b82818337600083830152505050565b600061230e612309846122bb565b6122a0565b90508281526020810184848401111561232a5761232961223b565b5b6123358482856122ec565b509392505050565b600082601f83011261235257612351612236565b5b81356123628482602086016122fb565b91505092915050565b6000806000806080858703121561238557612384611d87565b5b600061239387828801611fd4565b94505060206123a487828801611fd4565b93505060406123b587828801611f1f565b925050606085013567ffffffffffffffff8111156123d6576123d5611d8c565b5b6123e28782880161233d565b91505092959194509250565b6000806040838503121561240557612404611d87565b5b600061241385828601611fd4565b925050602061242485828601611fd4565b9150509250929050565b7f4e487b7100000000000000000000000000000000000000000000000000000000600052602260045260246000fd5b6000600282049050600182168061247557607f821691505b6020821081036124885761248761242e565b5b50919050565b7f4e487b7100000000000000000000000000000000000000000000000000000000600052601160045260246000fd5b60006124c882611efe565b91506124d383611efe565b92508282039050818111156124eb576124ea61248e565b5b92915050565b60006060820190506125066000830186611f93565b6125136020830185612029565b6125206040830184611f93565b949350505050565b7f496e646578206f7574206f6620626f756e647300000000000000000000000000600082015250565b600061255e601383611e57565b915061256982612528565b602082019050919050565b6000602082019050818103600083015261258d81612551565b9050919050565b600061259f82611efe565b91507fffffffffffffffffffffffffffffffffffffffffffffffffffffffffffffffff82036125d1576125d061248e565b5b600182019050919050565b7f546f6b656e206e6f7420666f756e640000000000000000000000000000000000600082015250565b6000612612600f83611e57565b915061261d826125dc565b602082019050919050565b6000602082019050818103600083015261264181612605565b9050919050565b600061265382611efe565b915061265e83611efe565b92508282019050808211156126765761267561248e565b5b92915050565b600081905092915050565b600061269282611e4c565b61269c818561267c565b93506126ac818560208601611e68565b80840191505092915050565b60006126c48285612687565b91506126d08284612687565b91508190509392505050565b600081519050919050565b600082825260208201905092915050565b6000612703826126dc565b61270d81856126e7565b935061271d818560208601611e68565b61272681611e92565b840191505092915050565b60006080820190506127466000830187611f93565b6127536020830186611f93565b6127606040830185612029565b818103606083015261277281846126f8565b905095945050505050565b60008151905061278c81611dbd565b92915050565b6000602082840312156127a8576127a7611d87565b5b60006127b68482850161277d565b91505092915050565b7f4e487b7100000000000000000000000000000000000000000000000000000000600052601260045260246000fd5b60006040820190506128036000830185611f93565b6128106020830184612029565b939250505056fea2646970667358221220999fe27cc7532d503ee54c2b0e94a8121f16c0b7b8e65ae3b3c87f9f5a6d98ee64736f6c63430008140033",
  "linkReferences": {},
  "deployedLinkReferences": {}
}