{
  "_format": "hh-sol-artifact-1",
  "contractName": "VaultManager",
  "sourceName": "contracts/contracts/VaultManager.sol",
  "abi": [
    {
      "inputs": [
        {
          "internalType": "address",
          "name": "_stableVaultAddress",
          "type": "address"
        }
      ],
      "stateMutability": "nonpayable",
      "type": "constructor"
    },
    {
      "inputs": [
        {
          "internalType": "address",
          "name": "_vaultAddress",
          "type": "address"
        }
      ],
      "name": "addVault",
      "outputs": [],
      "stateMutability": "nonpayable",
      "type": "function"
    },
    {
      "inputs": [
        {
          "internalType": "uint256",
          "name": "amount",
          "type": "uint256"
        }
      ],
      "name": "deposit",
      "outputs": [],
      "stateMutability": "payable",
      "type": "function"
    },
    {
      "inputs": [],
      "name": "getTotalBalance",
      "outputs": [
        {
          "internalType": "uint256",
          "name": "",
          "type": "uint256"
        }
      ],
      "stateMutability": "view",
      "type": "function"
    },
    {
      "inputs": [],
      "name": "getUserBalance",
      "outputs": [
        {
          "internalType": "uint256",
          "name": "",
          "type": "uint256"
        }
      ],
      "stateMutability": "view",
      "type": "function"
    },
    {
      "inputs": [],
      "name": "getVaults",
      "outputs": [
        {
          "internalType": "address[]",
          "name": "",
          "type": "address[]"
        }
      ],
      "stateMutability": "view",
      "type": "function"
    },
    {
      "inputs": [],
      "name": "owner",
      "outputs": [
        {
          "internalType": "address",
          "name": "",
          "type": "address"
        }
      ],
      "stateMutability": "view",
      "type": "function"
    },
    {
      "inputs": [
        {
          "internalType": "address",
          "name": "_vaultAddress",
          "type": "address"
        }
      ],
      "name": "removeVault",
      "outputs": [],
      "stateMutability": "nonpayable",
      "type": "function"
    },
    {
      "inputs": [],
      "name": "stableVault",
      "outputs": [
        {
          "internalType": "contract IVault",
          "name": "",
          "type": "address"
        }
      ],
      "stateMutability": "view",
      "type": "function"
    },
    {
      "inputs": [
        {
          "internalType": "uint256",
          "name": "",
          "type": "uint256"
        }
      ],
      "name": "vaultList",
      "outputs": [
        {
          "internalType": "address",
          "name": "",
          "type": "address"
        }
      ],
      "stateMutability": "view",
      "type": "function"
    },
    {
      "inputs": [
        {
          "internalType": "address",
          "name": "",
          "type": "address"
        }
      ],
      "name": "vaults",
      "outputs": [
        {
          "internalType": "bool",
          "name": "",
          "type": "bool"
        }
      ],
      "stateMutability": "view",
      "type": "function"
    },
    {
      "inputs": [
        {
          "internalType": "uint256",
          "name": "amount",
          "type": "uint256"
        }
      ],
      "name": "withdraw",
      "outputs": [],
      "stateMutability": "nonpayable",
      "type": "function"
    }
  ],
  "bytecode": "0x60806040523480156200001157600080fd5b50604051620012df380380620012df833981810160405281019062000037919062000129565b336000806101000a81548173ffffffffffffffffffffffffffffffffffffffff021916908373ffffffffffffffffffffffffffffffffffffffff16021790555080600160006101000a81548173ffffffffffffffffffffffffffffffffffffffff021916908373ffffffffffffffffffffffffffffffffffffffff160217905550506200015b565b600080fd5b600073ffffffffffffffffffffffffffffffffffffffff82169050919050565b6000620000f182620000c4565b9050919050565b6200010381620000e4565b81146200010f57600080fd5b50565b6000815190506200012381620000f8565b92915050565b600060208284031215620001425762000141620000bf565b5b6000620001528482850162000112565b91505092915050565b611174806200016b6000396000f3fe60806040526004361061009c5760003560e01c80636f42f9c7116100645780636f42f9c7146101865780638da5cb5b146101b1578063a622ee7c146101dc578063b6b55f2514610219578063b7013dc114610235578063ceb68c23146102605761009c565b806312b58349146100a1578063256b5a02146100cc5780632d8efbc5146100f55780632e1a7d4d1461013257806344d00f821461015b575b600080fd5b3480156100ad57600080fd5b506100b6610289565b6040516100c39190610b74565b60405180910390f35b3480156100d857600080fd5b506100f360048036038101906100ee9190610bf2565b610321565b005b34801561010157600080fd5b5061011c60048036038101906101179190610c4b565b610569565b6040516101299190610c87565b60405180910390f35b34801561013e57600080fd5b5061015960048036038101906101549190610c4b565b6105a8565b005b34801561016757600080fd5b50610170610638565b60405161017d9190610d60565b60405180910390f35b34801561019257600080fd5b5061019b6106c6565b6040516101a89190610de1565b60405180910390f35b3480156101bd57600080fd5b506101c66106ec565b6040516101d39190610c87565b60405180910390f35b3480156101e857600080fd5b5061020360048036038101906101fe9190610bf2565b610710565b6040516102109190610e17565b60405180910390f35b610233600480360381019061022e9190610c4b565b610730565b005b34801561024157600080fd5b5061024a6107c1565b6040516102579190610b74565b60405180910390f35b34801561026c57600080fd5b5061028760048036038101906102829190610bf2565b610859565b005b6000600160009054906101000a900473ffffffffffffffffffffffffffffffffffffffff1673ffffffffffffffffffffffffffffffffffffffff166312b583496040518163ffffffff1660e01b8152600401602060405180830381865afa1580156102f8573d6000803e3d6000fd5b505050506040513d601f19601f8201168201806040525081019061031c9190610e47565b905090565b60008054906101000a900473ffffffffffffffffffffffffffffffffffffffff1673ffffffffffffffffffffffffffffffffffffffff163373ffffffffffffffffffffffffffffffffffffffff16146103af576040517f08c379a00000000000000000000000000000000000000000000000000000000081526004016103a690610ed1565b60405180910390fd5b600073ffffffffffffffffffffffffffffffffffffffff168173ffffffffffffffffffffffffffffffffffffffff160361041e576040517f08c379a000000000000000000000000000000000000000000000000000000000815260040161041590610f3d565b60405180910390fd5b600260008273ffffffffffffffffffffffffffffffffffffffff1673ffffffffffffffffffffffffffffffffffffffff16815260200190815260200160002060009054906101000a900460ff16156104ab576040517f08c379a00000000000000000000000000000000000000000000000000000000081526004016104a290610fa9565b60405180910390fd5b6001600260008373ffffffffffffffffffffffffffffffffffffffff1673ffffffffffffffffffffffffffffffffffffffff16815260200190815260200160002060006101000a81548160ff0219169083151502179055506003819080600181540180825580915050600190039060005260206000200160009091909190916101000a81548173ffffffffffffffffffffffffffffffffffffffff021916908373ffffffffffffffffffffffffffffffffffffffff16021790555050565b6003818154811061057957600080fd5b906000526020600020016000915054906101000a900473ffffffffffffffffffffffffffffffffffffffff1681565b600160009054906101000a900473ffffffffffffffffffffffffffffffffffffffff1673ffffffffffffffffffffffffffffffffffffffff16632e1a7d4d826040518263ffffffff1660e01b81526004016106039190610b74565b600060405180830381600087803b15801561061d57600080fd5b505af1158015610631573d6000803e3d6000fd5b5050505050565b606060038054806020026020016040519081016040528092919081815260200182805480156106bc57602002820191906000526020600020905b8160009054906101000a900473ffffffffffffffffffffffffffffffffffffffff1673ffffffffffffffffffffffffffffffffffffffff1681526020019060010190808311610672575b5050505050905090565b600160009054906101000a900473ffffffffffffffffffffffffffffffffffffffff1681565b60008054906101000a900473ffffffffffffffffffffffffffffffffffffffff1681565b60026020528060005260406000206000915054906101000a900460ff1681565b600160009054906101000a900473ffffffffffffffffffffffffffffffffffffffff1673ffffffffffffffffffffffffffffffffffffffff1663b6b55f2582836040518363ffffffff1660e01b815260040161078c9190610b74565b6000604051808303818588803b1580156107a557600080fd5b505af11580156107b9573d6000803e3d6000fd5b505050505050565b6000600160009054906101000a900473ffffffffffffffffffffffffffffffffffffffff1673ffffffffffffffffffffffffffffffffffffffff166312b583496040518163ffffffff1660e01b8152600401602060405180830381865afa158015610830573d6000803e3d6000fd5b505050506040513d601f19601f820116820180604052508101906108549190610e47565b905090565b60008054906101000a900473ffffffffffffffffffffffffffffffffffffffff1673ffffffffffffffffffffffffffffffffffffffff163373ffffffffffffffffffffffffffffffffffffffff16146108e7576040517f08c379a00000000000000000000000000000000000000000000000000000000081526004016108de90610ed1565b60405180910390fd5b600260008273ffffffffffffffffffffffffffffffffffffffff1673ffffffffffffffffffffffffffffffffffffffff16815260200190815260200160002060009054906101000a900460ff16610973576040517f08c379a000000000000000000000000000000000000000000000000000000000815260040161096a90611015565b60405180910390fd5b6000600260008373ffffffffffffffffffffffffffffffffffffffff1673ffffffffffffffffffffffffffffffffffffffff16815260200190815260200160002060006101000a81548160ff02191690831515021790555060005b600380549050811015610b57578173ffffffffffffffffffffffffffffffffffffffff1660038281548110610a0657610a05611035565b5b9060005260206000200160009054906101000a900473ffffffffffffffffffffffffffffffffffffffff1673ffffffffffffffffffffffffffffffffffffffff1603610b445760036001600380549050610a609190611093565b81548110610a7157610a70611035565b5b9060005260206000200160009054906101000a900473ffffffffffffffffffffffffffffffffffffffff1660038281548110610ab057610aaf611035565b5b9060005260206000200160006101000a81548173ffffffffffffffffffffffffffffffffffffffff021916908373ffffffffffffffffffffffffffffffffffffffff1602179055506003805480610b0a57610b096110c7565b5b6001900381819060005260206000200160006101000a81549073ffffffffffffffffffffffffffffffffffffffff02191690559055610b57565b8080610b4f906110f6565b9150506109ce565b5050565b6000819050919050565b610b6e81610b5b565b82525050565b6000602082019050610b896000830184610b65565b92915050565b600080fd5b600073ffffffffffffffffffffffffffffffffffffffff82169050919050565b6000610bbf82610b94565b9050919050565b610bcf81610bb4565b8114610bda57600080fd5b50565b600081359050610bec81610bc6565b92915050565b600060208284031215610c0857610c07610b8f565b5b6000610c1684828501610bdd565b91505092915050565b610c2881610b5b565b8114610c3357600080fd5b50565b600081359050610c4581610c1f565b92915050565b600060208284031215610c6157610c60610b8f565b5b6000610c6f84828501610c36565b91505092915050565b610c8181610bb4565b82525050565b6000602082019050610c9c6000830184610c78565b92915050565b600081519050919050565b600082825260208201905092915050565b6000819050602082019050919050565b610cd781610bb4565b82525050565b6000610ce98383610cce565b60208301905092915050565b6000602082019050919050565b6000610d0d82610ca2565b610d178185610cad565b9350610d2283610cbe565b8060005b83811015610d53578151610d3a8882610cdd565b9750610d4583610cf5565b925050600181019050610d26565b5085935050505092915050565b60006020820190508181036000830152610d7a8184610d02565b905092915050565b6000819050919050565b6000610da7610da2610d9d84610b94565b610d82565b610b94565b9050919050565b6000610db982610d8c565b9050919050565b6000610dcb82610dae565b9050919050565b610ddb81610dc0565b82525050565b6000602082019050610df66000830184610dd2565b92915050565b60008115159050919050565b610e1181610dfc565b82525050565b6000602082019050610e2c6000830184610e08565b92915050565b600081519050610e4181610c1f565b92915050565b600060208284031215610e5d57610e5c610b8f565b5b6000610e6b84828501610e32565b91505092915050565b600082825260208201905092915050565b7f4e6f7420746865206f776e657200000000000000000000000000000000000000600082015250565b6000610ebb600d83610e74565b9150610ec682610e85565b602082019050919050565b60006020820190508181036000830152610eea81610eae565b9050919050565b7f496e76616c6964207661756c7420616464726573730000000000000000000000600082015250565b6000610f27601583610e74565b9150610f3282610ef1565b602082019050919050565b60006020820190508181036000830152610f5681610f1a565b9050919050565b7f5661756c7420616c726561647920616464656400000000000000000000000000600082015250565b6000610f93601383610e74565b9150610f9e82610f5d565b602082019050919050565b60006020820190508181036000830152610fc281610f86565b9050919050565b7f5661756c74206e6f7420666f756e640000000000000000000000000000000000600082015250565b6000610fff600f83610e74565b915061100a82610fc9565b602082019050919050565b6000602082019050818103600083015261102e81610ff2565b9050919050565b7f4e487b7100000000000000000000000000000000000000000000000000000000600052603260045260246000fd5b7f4e487b7100000000000000000000000000000000000000000000000000000000600052601160045260246000fd5b600061109e82610b5b565b91506110a983610b5b565b92508282039050818111156110c1576110c0611064565b5b92915050565b7f4e487b7100000000000000000000000000000000000000000000000000000000600052603160045260246000fd5b600061110182610b5b565b91507fffffffffffffffffffffffffffffffffffffffffffffffffffffffffffffffff820361113357611132611064565b5b60018201905091905056fea26469706673582212207d2827b66db81938d3ada33c08ffc4309233edd32bfffc701a87a209f415b71164736f6c63430008140033",
  "linkReferences": {},
  "deployedLinkReferences": {}
}